:0A0E30003F065B4F666D7D077F6F84
:030E4A000108009C
:0B0E1A00EF1FAC0670011E4C70F622AA
:040B5600AB07AA0639
:100B5A00C3EA648094805042750940EB1B70011A05
:100B6A006303FF6302FFAD03AC02EC120A038F11A9
:100B7A008E108D0F8C0EE4FFFE7DC87C40AB11AA4F
:100B8A0010A90FA80E1208F8E4FBFAF9783F120828
:100B9A0007120A3CAA06AB07804DE4F509AD03AC7F
:100BAA0002EC120A038F118E108D0F8C0EE4FFFED9
:100BBA007DC87C40AB11AA10A90FA80E1208F8E450
:100BCA00FBFAF9783F120807120A3CAA06AB07D3C8
:100BDA00EB94B8EA6480948B400BB2947F647E00F5
:100BEA00120E1A8002C2947C277D10AF03AE021245
:100BFA000ABD7E037FE8CFCDCFCECCCE120ABD741C
:100C0A00302FF582740E3EF583E493F50A7C037D5A
:100C1A00E8AF03AE02120ABD7E007F64CFCDCFCE0D
:100C2A00CCCE120ABD74302FF582740E3EF583E4E1
:100C3A00934480F50B7C007D64AF03AE02120ABDBB
:100C4A007E007F0ACFCDCFCECCCE120ABD74302F14
:100C5A00F582740E3EF583E493F50CAE02AF037C85
:100C6A00007D0A120ABD74302DF582740E3CF5839C
:040C7A00E493F50DFD
:010C7E002253
:100D8B00E4FDEDC39405748094805025ED2403F5A8
:100D9B0020A20092A2A20192A3A20292A474092DF6
:100DAB00F8E6F5807F647E00120E1AE4F5800D8064
:010DBB00D166
:010DBC002214
:0B0E2500120E03120B56120D8B80F50D
:100DE500D3EF9400EE940040147D6E7C00ED1D70F1
:0D0DF500011CED4C70F7EF1F70E61E80E34F
:010E020022CD
:100DBD00C2B77B46AF031BEF70FAD2B7FB30B71546
:100DCD007F017E00120DE50BEBD3940574809480AA
:070DDD0040EB7F00227F01C3
:010DE40022EC
:0C0D0B00120DBD7F017E00120DE57FCCB3
:100D1700E4FBFAC2B70510E5107002050FEF139256
:100D2700B7750F00751006E5101510AC0F7002159A
:100D37000F4C70F3D2B7EFC313FF0BBB00010AEBE5
:050D470064084A70CEB3
:010D4C002284
:100D4D007D087C00C2B70FBF0000D2B70FBF0000F7
:100D5D000FBF0000A2B7E433C43333335480FBE933
:100D6D00C3134BF97E007F04EF1FAA0670011E4AC4
:0D0D7D0070F6ED1D70011CED4C70C9AF014A
:010D8A002246
:080E3A00120D0B7F44020D179D
:080E4200120D0B7FBE020D171B
:100E0300E4FFFE120E3A120E42120D4D8F0E120D1A
:060E13004DEFFEE50EFFAD
:010E190022B6
:10080000020AA8E86480F8E933E83360110460F074
:10081000ED33EC337009E8FCE9FDEAFEEBFF22045E
:1008200060DED3EB9FEA9EE99DE8C2E78CF0C2F759
:1008300095F0400CE8CCF8E9CDF9EACEFAEBCFFB25
:10084000120A7385D0F05804700320D5B3E8047001
:10085000075002B2D5020AB292D5EC0460F7E4CC9C
:10086000C0E0C398F8603B94186008400DD0E0FBEE
:10087000020A8AE4FBFAC9FC8028E830E406E4C9ED
:10088000FBE4CAFCE830E305E4C9CACBFCE8540742
:100890006010F8C3E913F9EA13FAEB13FBEC13FC4D
:1008A000D8F130F52FC3E49CFCEF9BFFEE9AFEEDF0
:1008B00099FDD0E0FBEF4E4D4C701222DB03020A93
:1008C000AFEC2CFCEF33FFEE33FEED33FDED30E704
:1008D000EB020A8AEF2BFFEE3AFEED39FDD0E0FB8A
:1008E00050130BBB0003020AB2ED13FDEE13FEEF33
:0808F00013FFEC13FC020A8A5D
:1008F800EC4D6011E8497017ED33EC3304600DE4FA
:10090800FCFFFEFD22E933E8330470F8020AA8125E
:100918000A7358046009E4CC24815006285009025F
:100928000AB2284003020AAFC0E0EB4A7044B9801B
:1009380006D0E0FB020A9EEF4E701CBD8008EBFF5C
:10094800EAFEE9FD80EBE98DF0A4FEE5F00209E19D
:10095800E9CDF9EAFEEBFFEF89F0A4FCE5F0CE89DA
:10096800F0A42EFFE435F0CD89F0A42DFEE435F097
:100978008067EF4E7005BD80D780C3EF8BF0A4ACC5
:10098800F0EE8BF0A42CFCE435F0F8EF8AF0A42C00
:10099800E5F038FCE433CB8DF0A42CFCE5F03BF813
:1009A800EE8AF0A42CFCE5F038F8E433CF89F0A403
:1009B8002CFCE5F038CF3400CE89F0A42FFFE5F009
:1009C8003EFEE433C98DF0A42EFEE5F039CD8AF061
:1009D800A42FFFE5F03EFEE43DFD33D0E0FB5007D9
:1009E8000BBB000F020AB2EC2CFCEF33FFEE33FE18
:0609F800ED33FD020A8A46
:1009FE0075F020800E75F010800575F0087D007E74
:100A0E00007F003392D530D503120AF3EC33401039
:100A1E00EF33FFEE33FEED33FDEC33FCD5F0ED227C
:0E0A2E00E5F0247EA2D513CC92E7CDCEFF22B8
:100A3C00EDD2E7CD33EC3392D524814006E4FFFEB2
:100A4C00FDFC22FCE4CFCECDCC24E0501174FF8011
:100A5C00EDC3CC13CCCD13CDCE13CECF13CF0470AE
:070A6C00F030D5DE020AF3B1
:100A7300E9D2E7C933E833F892D5EDD2E7CD33ECC9
:070A830033FC5002B2D52242
:100A8A00EC30E7100FBF000C0EBE00080DBD0004CD
:100A9A000BEB6014A2D5EB13FCED92E7FD2274FF79
:100AAA00FCFDFEFF22E480F8A2D574FF13FC7D80D2
:030ABA00E480EFE6
:03000000020C7F70
:0C0C7F00787FE4F6D8FD758120020CC6D9
:100ABD00C2D5EC30E709B2D5E4C39DFDE49CFCEE54
:100ACD0030E715B2D5E4C39FFFE49EFE120B01C3C0
:100ADD00E49DFDE49CFC8003120B0130D507C3E4BB
:060AED009FFFE49EFE22C3
:0E0AF300C3E49FFFE49EFEE49DFDE49CFC2214
:100C8B00020E25E493A3F8E493A34003F68001F24C
:100C9B0008DFF48029E493A3F85407240CC8C3336A
:100CAB00C4540F4420C8834004F456800146F6DF39
:100CBB00E4800B0102040810204080900E4AE47E71
:100CCB00019360BCA3FF543F30E509541FFEE4932E
:100CDB00A360010ECF54C025E060A840B8E493A3F5
:100CEB00FAE493A3F8E493A3C8C582C8CAC583CA20
:100CFB00F0A3C8C582C8CAC583CADFE9DEE780BED8
:010E4D0000A4
:100B0100BC000BBE0029EF8DF084FFADF022E4CCD8
:100B1100F875F008EF2FFFEE33FEEC33FCEE9DECA1
:100B2100984005FCEE9DFE0FD5F0E9E4CEFD22EDE7
:100B3100F8F5F0EE8420D21CFEADF075F008EF2F31
:100B4100FFED33FD4007985006D5F0F222C398FD22
:050B51000FD5F0EA22BF
:00000001FF
